:100000006CEF08F00000000000EF00F000000000BE
:0A0010000000000000000000F3D71C
:10001C000F0E0C6E470E0D6E0D2EFED70C2EFCD750
:06002C00000000001200BC
:06003200000000001200B6
:0A003800210E0D6E0D2EFED71200F2
:100042000B840BAE2CEF00F0010E036E026A016A04
:0A005200006A0A360232FF0E1200A7
:08005C000AAE029E000E120024
:0E006400026A016A006A086A036A000E12004E
:10007200086A096A100E0C6E0134083609360450FB
:10008200085E0550D8A0053C095ED8B007D00450E0
:1000920008260550D8B0053C0926D890003601360E
:0600A2000C2EEAD712004B
:1000A8000001C1BF02D0829601D08286C1BD02D0B4
:1000B800829401D08284C1BB02D0829201D0828214
:1000C800C1B902D0829001D0828097B102D08288D3
:1000D80001D08298828AA9DF829AC1B702D082961B
:1000E80001D08286C1B502D0829401D08284C1B386
:1000F80002D0829201D08282C1B102D0829001D016
:10010800828097B102D0828801D08298828A8DDF5E
:0E011800829A97A102D07EDF01D08ADF12000A
:100126000B820BAE9DEF00F0036802680168006861
:080136000A360232FF0E12002E
:0C013E00060E0D6E0D2EFED70000120004
:10014A00BAC004F0BBC005F004C002F005C003F059
:10015A00044A052ABCC000F0BDC001F00001BC4B36
:10016A00BD2B00C0E9FF01C0EAFF02C0E1FF03C0E6
:10017A00E2FFEECFE6FF02C0E9FF03C0EAFFEE525C
:0E018A0001E0E2D7BAC000F0BBC001F01200E5
:0C0198000E0E0D6E0D2EFED700001200A2
:1001A4000CB014EF01F00CA2BAEF01F00E6A000ECD
:1001B40002642BEF01F0F00E0214D8A4F6EF00F065
:1001C400023A01380F0B02260138F00B016E003899
:1001D4000F0B01260038F00B006E08380F0B0026B9
:1001E4000838F00B086E0E84D89002BE0FEF01F0B1
:1001F40008360036013602360E2A02BE0FEF01F031
:1002040008360036013602360E2A02BE0FEF01F020
:1002140008360036013602360E2A0E500364B0EF5B
:1002240001F0035E0BBC08AEB5EF01F0D880800E80
:1002340008640030000E002201220222D8A0B5EF8B
:1002440001F0023201320032034ABAEF01F0B5EF95
:1002540001F001C002F000C001F008C000F0086A1B
:10026400000E0E86026462EF01F0F00E0214D8A4B0
:100274004AEF01F0023A01380F0B02260138F00B65
:10028400016E00380F0B01260038F00B006E0E844F
:10029400D89002BE0FEF01F00036013602360E2A66
:1002A40002BE0FEF01F00036013602360E2A02BEFE
:1002B4000FEF01F00036013602360E2A0FEF01F07F
:1002C40001C002F000C001F0006A000E0E960E8814
:1002D40002648FEF01F0F00E0214D8A47AEF01F05B
:1002E400023A01380F0B02260138F00B016E0E841E
:1002F400D89002BE0FEF01F0013602360E2A02BE7C
:100304000FEF01F0013602360E2A02BE0FEF01F0A4
:10031400013602360E2A0FEF01F001C002F0016A25
:10032400000E0E860264BFEF01F0F00E0214D8A492
:100334009EEF01F0023A0E84D89002BE0FEF01F056
:1003440002360E2A02BE0FEF01F002360E2A02BE5A
:100354000FEF01F002360E2A0FEF01F0010E0C6EC2
:100364006EDEC2EF01F0020E0C6E76DEC2EF01F01B
:10037400040E0C6ED6DEC2EF01F0080E0C6E70DEB9
:02038400120065
:10038600086A080E0C6E003408360450085ED8B0B1
:0E03960002D00826D89000360C2EF5D71200A3
:1003A400086A096A000E0762036457EF02F00250FC
:1003B40006180A6E075003267E0ED8A0E8EF01F057
:1003C400035ED8B05BEF02F0ECEF01F0035ED8A05F
:1003D4005FEF02F0028E068E02C00EF001C00BF039
:1003E40000C00DF000500402F4CF0CF001500502DF
:1003F400F4CF00F0F3CF08F00402F3500C26F450CD
:100404000822000E00220D500502F3500C26F45071
:100414000822000E002202500402F3500826F45071
:10042400002202500502016A000E0122F350002648
:10043400F45001220D500602F3500826F450002215
:10044400026A000E012202220B500602F35000261B
:10045400F4500122000E02220E500602F35001262F
:10046400F450022202BE3FEF02F008360036013695
:1004740002360306D8B45FEF02F052EF02F0D880E0
:10048400800E08640030000E002201220222D8A04F
:1004940052EF02F0023201320032034A5BEF02F003
:1004A4000AAE029E000E61EF02F0010ED9DD61EF8B
:1004B40002F0020E36DE61EF02F0040EC0DD12001F
:0804C4000B6A0B86FF0E12000B
:1004CC000A6A0350D8A40A800750D8A40A820A509A
:1004DC00D8B4C9EF02F0030AD8B482EF02F00AB024
:1004EC007DEF02F006AEC7EF02F0C5EF02F002AEF0
:1004FC00C5EF02F0C7EF02F00250800B0A6E029EAD
:10050C000650800B069E0A18D8B493EF02F00A50DE
:10051C00D8B4C5EF02F0C7EF02F00750035CD8B4B3
:10052C009DEF02F0D8A0B9EF02F0BFEF02F0065039
:10053C00025CD8B4A7EF02F0D8A0B9EF02F0BFEF7D
:10054C0002F00550015CD8B4B1EF02F0D8A0B9EFBD
:10055C0002F0BFEF02F00450005CD8B4C9EF02F017
:10056C00D8B0BFEF02F00A52D8B4C7EF02F0C5EF13
:10057C0002F00A52D8B4C5EF02F0C7EF02F0D880EF
:0E058C001200D8901200D880D88412001200FD
:10059A000C6A0E6A0250D8A4E6EF02F001C002F01B
:1005AA0000C001F0006A0E860250D8A4E6EF02F0FD
:1005BA0001C002F0016A0E960E880250D8B4F8EF14
:1005CA0002F00E50035ED8A4D8A0FDEF02F0D89036
:1005DA0002BE02EF03F0003601360236032EEDEFBB
:1005EA0002F0FDEF02F0010E0C6E37DD05EF03F0AD
:1005FA00020E0C6E21DD05EF03F0040E0C6E29DDF0
:02060A001200DC
:0E060C0000019791BAC0C1F049DD978112003C
:10061A000001BE6B050EBE5D0AE2BE51BC25E16E4D
:10062A00000EBD21E26E200EE66EBE2BF3D7BE5140
:10063A00BC25E16E000EBD21E26EE66ABE07BE5120
:10064A00BC25BF6F000EBD21C06F0A0E046E000EDE
:10065A00056EBAC000F0BBC001F006DD08C000F0AC
:10066A0009C001F0300E0026BFC0E1FFC0C0E2FFA2
:10067A0000C0E6FF0A0E046E000E056EBAC000F056
:10068A00BBC001F0F1DC00C0BAF001C0BBF0000E43
:10069A00011802E1000E001801E102D0BE07CFD70F
:0206AA0012003C
:1006AC0010D0800E0001BA6F1AD0C00EBA6F17D0DE
:1006BC00940EBA6F14D0D40EBA6F11D0800EBA6FDC
:1006CC000ED00001BA51010AECE0BA51020AEDE079
:1006DC00BA51030AEDE0BA51040AEDE0EFD7BB05BD
:1006EC00006EBA51002600C0BAF0978100C0C1F06C
:0E06FC00D5DC9791BCC0C1F0D1DC9781120013
:10070A000001BA6BBC6BBD6B100EBE6F040EBD5DF3
:10071A001DE2F00E816EBE1D936E86DC85DC0F0E27
:10072A008114006E00C0BBF000520AE0BCC0BAF0EF
:10073A00BB5304E0BB33BB9FBA2BFAD7040EBD6F81
:10074A00BE37BE91040EBC27BD2BE0D7BAC000F05D
:02075A0012008B
:10075C0010D0800E0001AC6F1AD0C00EAC6F17D049
:10076C00940EAC6F14D0D40EAC6F11D0800EAC6F55
:10077C000ED00001AC51010AECE0AC51020AEDE0E4
:10078C00AC51030AEDE0AC51040AEDE0EFD7AD0536
:10079C00006EAC51002600C0ACF000C0C1F07EDC95
:1007AC009791B06BB051AE25E96E000EAF21EA6E99
:1007BC00EE520BE0B051AE25E96E000EAF21EA6EA1
:0E07CC00EECFBAF01DDFB02BEDD797811200F3
:1007DA00400E0001C16F63DCAE6BAE51070811E336
:1007EA00E80EAE25F66E140EF76E000EF722000E16
:1007FA00F86E000EF8220900F5CFBAF002DFAE2B30
:10080A00ECD7020EC16F4BDCACC0BAF0ADC0BBF086
:06081A00BC6B47DF120079
:06082000FF0E936E1200B2
:100826000900F5CFE6FF0006FBE10106F9E112003B
:10083600949A94989490949294949496829A829886
:1008460082968294829282900EEC00F00EEC00F07A
:100856000EEC00F082828280828A19EC00F0829A85
:100866000EEC00F0828A19EC00F0829A0EEC00F091
:10087600828A19EC00F0829A0EEC00F08290828A4D
:1008860019EC00F0829A0EEC00F0828A19EC00F066
:10089600829A82928286828A19EC00F0829A0EEC03
:1008A60000F082968280828A19EC00F0829A829009
:1008B600828A19EC00F0829A0EEC00F0828A19EC1A
:1008C60000F0829A8280828A19EC00F0829A0EECFD
:1008D60000F08290828A19EC00F0829A82868284E5
:1008E60082828280828A19EC00F0829A0EEC00F0F5
:0608F600000197811200D1
:1008FC000450000A12E10550000A0FE10650000AEC
:10090C000CE10750000A09E1FF0E006EFF0E016EAC
:10091C007F0E026EFF0E036EA7D0086A096A07509D
:10092C00D8B429EF05F00350D8B42DEF05F00250E0
:10093C0006180A6E028E068E0E6A02C008F001C0FE
:10094C000CF000C00DF004500D5E0550D8A0053C15
:10095C000C5E0650D8A0063C085E086A0C6A0D6A4C
:10096C00D8A0C0EF04F0D890023201320032083225
:10097C00010E0E6E0750035ED8A0CDEF04F07E0E74
:10098C000E240326D8B032EF05F0D3EF04F07E0E20
:10099C000E240326D8A037EF05F0180E0B6E0D367B
:1009AC000C3608360036013602360E360450005E20
:1009BC000550D8A0053C015E0650D8A0063C025E4E
:1009CC0006340E120EA0EEEF04F00D80F9EF04F0D9
:1009DC00045000260550D8B0053C01260650D8B06E
:1009EC00062802260D900B2ED5EF04F01FEF05F014
:1009FC00D8900036013602360E360450005E055093
:100A0C00D8A0053C015E0650D8A0063C025E063418
:100A1C000E10010B0D26D8B00C2AD8B4082AD8A475
:100A2C001FEF05F008320C320D32032AD8B432EF26
:100A3C0005F00AAE089E0850026E0C50016E0D5067
:100A4C00006E3AEF05F0010E37DD3AEF05F0020EBD
:100A5C0032EC00F03AEF05F0040E93EC00F03AEFB4
:0A0A6C0005F0080E21EC00F0120066
:100A76000050086E0150006E016A026A036A0B6A32
:100A86000C6A960E036E0A6A00C001F008C000F0F8
:080A9600086A026A7FDD12000C
:100A9E000001B86BB96BACC0B4F0ADC0B5F0AEC070
:100AAE00B6F0AFC0B7F0B751FF0A08E1B651FF0A72
:100ABE0005E1B551FF0A02E1B451FF0A0DE1B0C0E4
:100ACE00BAF0B1C0BBF07E0EBC6F000EBD6FA5ECD0
:100ADE0000F0030E006EEBD1010EB26FB6AF0ED06A
:100AEE00800EB619006E00C0B6F0B22BB0C0E1FF9A
:100AFE00B1C0E2FF2D0EE66EB04BB12B000E006EB4
:100B0E00B71908E10050B61905E10050B51902E118
:100B1E00B451000A0CE1B0C0BAF0B1C0BBF0780E0F
:100B2E00BC6F000EBD6FA5EC00F0006AC0D1B751CE
:100B3E00FF0A08E1B651000A05E1B551000A02E1CB
:100B4E00B451000A0DE1B0C0BAF0B1C0BBF07A0EDC
:100B5E00BC6F000EBD6FA5EC00F0B2C000F0A7D1C7
:100B6E00000E046E000E056E000E066E7F0E076EF2
:100B7E00B4C000F0B5C001F0B6C002F0B7C003F0CB
:100B8E009EDC010ED8B0000E006E00521CE0B4C008
:100B9E0000F0B5C001F0B6C002F0B7C003F0000E11
:100BAE00046E000E056E200E066E820E076ED2ECDF
:100BBE0001F000C0B4F001C0B5F002C0B6F003C041
:100BCE00B7F0B907CDD7000E046E000E056E200EDD
:100BDE00066E820E076EB4C000F0B5C001F0B6C04E
:100BEE0002F0B7C003F06BDC000ED8B0010E006E41
:100BFE0000521CE0B4C000F0B5C001F0B6C002F067
:100C0E00B7C003F0CD0E046ECC0E056E4C0E066E04
:100C1E007B0E076ED2EC01F000C0B4F001C0B5F04F
:100C2E0002C0B6F003C0B7F0B92BCDD7FF0EB41586
:100C3E00086EFF0EB515096E7F0EB6150A6E000E04
:100C4E00B7150B6E08C004F009C005F00AC006F017
:100C5E000BC007F004360490053606360736000E34
:100C6E00B415006E000EB515016E000EB615026EAF
:100C7E00FF0EB715036E00C0B4F001C0B5F002C090
:100C8E00B6F003C0B7F00450B411006E0550B511A4
:100C9E00016E0650B611026E0750B711036E00C0FA
:100CAE00B4F001C0B5F002C0B6F003C0B7F07F0ECD
:100CBE00B75D006E00C0B3F0010EB76F00C004F058
:100CCE00B4C000F0B5C001F0B6C002F0B7C003F07A
:100CDE00045007E000360090013602360336FF0F4F
:100CEE00F8D700C0B4F001C0B5F002C0B6F003C032
:100CFE00B7F0B0C0E1FFB1C0E2FFB751300FE66E02
:100D0E00B04BB12B800EB919006E800E010A005C3B
:100D1E0008E3800E060A006E800EB919005C01E32E
:100D2E000AD0B0C0E1FFB1C0E2FF2E0EE66EB04BAE
:100D3E00B12B010EB86F060EB36FB351000A54E01B
:100D4E00B76BB4C000F0B5C001F0B6C002F0B7C0CA
:100D5E0003F000360090013602360336003600905E
:100D6E00013602360336B4510026B5510122B65172
:100D7E000222B751032200C0B4F001C0B5F002C088
:100D8E00B6F003C0B7F0B4C000F0B5C001F0B6C005
:100D9E0002F0B7C003F0003600900136023603367B
:100DAE0000C0B4F001C0B5F002C0B6F003C0B7F099
:100DBE00B0C0E1FFB1C0E2FFB751300FE66EB04BED
:100DCE00B12BB851000A0EE1B907B951000A0AE178
:100DDE00B0C0E1FFB1C0E2FF2E0EE66EB04BB12BFC
:100DEE00010EB86FB307A9D7FF0EB025E96EFF0E3F
:100DFE00B121EA6EEE50300A05E1010EB05F000E31
:100E0E00B15BF2D7FF0EB025E96EFF0EB121EA6E8F
:100E1E00EE502E0A04E1010EB05F000EB15BB95127
:100E2E00000A3FE0B0C0E1FFB1C0E2FF650EE66E22
:100E3E00B04BB12B800EB919006E800E000A005C0B
:100E4E000BE2B0C0E1FFB1C0E2FF2D0EE66EB04B7B
:100E5E00B12BB9510008B96FB9C0B3F0B951090837
:100E6E000FE20A0E046EB3C000F0C3EC01F0B0C086
:100E7E00E1FFB1C0E2FF0050300FE66EB04BB12B78
:100E8E000A0E046EB3C000F0C3EC01F008C000F00F
:100E9E00B0C0E1FFB1C0E2FF0050300FE66EB04BC4
:100EAE00B12BB0C0E1FFB1C0E2FFE66A006A1200EA
:100EBE0003500718D8A473EF07F002500618D8A4F1
:100ECE0073EF07F001500518D8A473EF07F0005028
:0E0EDE000418D8B4D8841200D8941200120060
:100EEC0000C008F00B6A0C6A9E0E036E0A6A026A56
:0E0EFC00016A006A020E0C6ED2EC00F01200C9
:100F0A000001B26BB36BACC0B4F0ADC0B5F0800EEB
:100F1A00AD19006E800E005C02E1000EAC5D0BE2C2
:100F2A00010EB26F000EB36FAC510008B46FADC0C2
:100F3A00B5F0000EB557B4C0BAF0B5C0BBF0AEC03C
:100F4A00BCF0AFC0BDF00DEC03F0060EB06F000EA2
:100F5A00B16F000E006EB151005C02E1B0510008A1
:100F6A0019E2B051AE25E16EB151AF21E26E010E28
:100F7A00B05D006E000EB159016E0050AE25E96EEB
:100F8A000150AF21EA6EEECFE6FF010EB05F000E10
:100F9A00B15BDFD7AEC0E1FFAFC0E2FF200EE66E65
:100FAA00B251B3111AE0B06BB16BB051AE25E96E14
:100FBA00B151AF21EA6EEE50200A03E1B04BB12BDA
:100FCA00F4D7010EB05F000EB15BB051AE25E16EF1
:0C0FDA00B151AF21E26E2D0EE66E120048
:100FE60085EC03F000C0ACF00F0E8114006E03E038
:0C0FF6009FEC00F0F9D7ACC000F0120036
:101002000001AE6BAF6BACC003F0ADC004F0ACC07E
:1010120005F0ADC006F003C0E9FF04C0EAFFEE50E0
:10102200200A04E1AE51AF1101E110D0010EAE6F02
:10103200000EAF6F03C0E9FF04C0EAFF05C0E1FF85
:1010420006C0E2FFEECFE6FF054A062A03C001F022
:1010520004C002F0034A042A01C0E9FF02C0EAFF09
:10106200EE50000AD8E1ACC000F0ADC001F01200B1
:10107200C26A070EC012C08EACC000F000360090EB
:10108200003600900050C212C280CCEC00F0C28246
:10109200C2A201D0FDD7C4CF01F0006AC350001232
:0810A200000E0112C2901200C1
:1010AA000001AE6BAE51AC25E96E000EAD21EA6EC1
:1010BA00EE520CE0AE51AC25E96E000EAD21EA6E9F
:0E10CA00EECFBAF006EC03F0AE2BECD712001E
:1010D80078EC0AF00F013A6B396B3B6B9280946A9B
:1010E8009590959210EC04F01BEC04F0010EC16F82
:1010F80054EC00F00C0EC16F54EC00F0010EAC6F14
:10110800040EAD6F440EAE6F000EAF6FAEEC03F081
:10111800020EAC6F020EAD6F4E0EAE6F000EAF6FCB
:10112800AEEC03F00D0E0B6E2D0E0C6ED70E0D6E81
:101138000D2EFED70C2EFCD70B2EFAD70000000080
:10114800010EC16F54EC00F00C0EC16F54EC00F0AE
:10115800010EAC6F030EAD6F5B0EAE6F000EAF6F7E
:10116800AEEC03F0020EAC6F020EAD6FEDEC03F0C7
:10117800020EAC6F030EAD6F380EAE6F000EAF6F80
:10118800AEEC03F0090E0B6E1E0E0C6EE40E0D6E27
:101198000D2EFED70C2EFCD70B2EFAD7000083900D
:1011A8008392010EC16F54EC00F0010EAC6F010E7A
:1011B800AD6F150EAE6F000EAF6FAEEC03F0A76B00
:1011C800020EAC6F010EAD6F240EAE6F000EAF6F46
:1011D800AEEC03F004DF00C098F00052FBE0985139
:1011E8000F0A01E123D09851030804E2080E985D24
:1011F800D8A098079851080805E20C0E985D02E2FD
:10120800020E985F98510E0AD8B4986B98510D0A3F
:1012180001E1C7D7300E9825BA6F06EC03F00A0E25
:10122800A703F3CFA7F09851A727D4D7010EC16F12
:1012380054EC00F0010EAC6F010EAD6F2E0EAE6FC8
:10124800000EAF6FAEEC03F0A7C0ACF0000EAD6FB0
:10125800990EAE6F000EAF6F54DE990EAC6F000E94
:10126800AD6FCBDE00C0ACF0000EAD6F1ADF020E22
:10127800AC6F010EAD6F670EAE6F000EAF6FAEECC8
:1012880003F0986B98510F0A06E0A9DE00C098F0A9
:101298000052FBE0F7D7010EC16F54EC00F0010ECD
:1012A800AC6F010EAD6F820EAE6F000EAF6FAEEC7D
:1012B80003F0010EBA6F0F0EBB6FDF0EBC6F56EC5A
:1012C80003F0010EBA6F100EBB6F430EBC6F56ECE5
:1012D80003F0AC6BCADE3BEC05F0000E046E400E6A
:1012E800056E1C0E066E8B0E076ED2EC01F0000E1A
:1012F800046E000E056E000E066E890E076E7EECFB
:1013080004F0000E046E000E056E200E066E820EAE
:10131800076E7EEC04F000C0A8F001C0A9F002C07E
:10132800AAF003C0ABF0A7C0ACF0000E0001AD6F8F
:10133800990EAE6F000EAF6FE4DD990EAC6F000E24
:10134800AD6F5BDE010EAC6F0B0EAD6F00C0AEF083
:10135800000EAF6FAEEC03F0020EAC6F010EAD6F76
:101368008C0EAE6F000EAF6FAEEC03F0A8C0ACF001
:10137800A9C0ADF0AAC0AEF0ABC0AFF0990EB06F87
:10138800000EB16F4FEC05F09D6B020EAC6F070EAF
:10139800AD6F990EAE6F000EAF6FAEEC03F0020E9C
:1013A800AC6F0C0EAD6F930EAE6F000EAF6FAEEC60
:1013B80003F0A7C000F096DD00C004F001C005F0FE
:1013C80002C006F003C007F0A8C000F0A9C001F0F1
:1013D800AAC002F0ABC003F066EC02F0010ED8B070
:1013E800000E006E005202E083908382A7C000F0D6
:1013F80079DDA8C004F0A9C005F0AAC006F0ABC00A
:1014080007F066EC02F0010ED8B0000E006E005234
:1014180002E083808392A7C000F064DDA8C004F0D6
:10142800A9C005F0AAC006F0ABC007F044DD010E64
:10143800D8A4000E006E005202E0839083920B0E37
:101448000B6E260E0C6E5D0E0D6E0D2EFED70C2E3D
:0E145800FCD70B2EFAD7000000003BD7FFD7C1
:1014F00010EE15F0820E006E010E016E660EF66E95
:0E150000140EF76E000EF86E13EC04F01200DD
:0F146600456E7465722054656D70205265660086
:0A14750054656D70205265663A0060
:0A147F0054656D70205265663A0056
:0C14890069746961732054736567750015
:0A1495004175746F6D6174696300A6
:0D149F0054656D7020436F6E74726F6C00A9
:0C14AC0044455349474E45442042590036
:1014B8005072657373202320746F20436F6E742EEF
:0114C8000023
:0214C9003000F1
:0414CB00494E460040
:0414CF004E614E001C
:0A14D30054656D70205265663A0002
:0714DD0054656D703D200015
:0414E40020202000A4
:0814E8000F1D1B171E18181838
:020000040030CA
:0D000100231F3CFFBF81FF0FC00FE00F4029
:00000001FF
